:020000040800F2
:1000000038070020CD010008D1010008D301000805
:10001000D5010008D7010008D90100080000000040
:10002000000000000000000000000000DB010008EC
:10003000DD01000800000000DF010008E101000808
:10004000E3010008E3010008E3010008E301000800
:10005000E3010008E3010008E3010008E3010008F0
:10006000E3010008E3010008E3010008E3010008E0
:10007000E3010008E3010008E3010008E3010008D0
:10008000E3010008E3010008E3010008E3010008C0
:10009000E3010008E3010008E3010008E3010008B0
:1000A000E3010008E3010008E3010008E3010008A0
:1000B000E3010008E3010008E3010008E301000890
:1000C000E3010008E3010008E3010008E301000880
:1000D000E3010008A9020008E3010008E3010008A9
:1000E000E3010008E3010008E3010008E301000860
:1000F000E3010008E3010008E3010008E301000850
:10010000E3010008E3010008E3010008E30100083F
:10011000E3010008E3010008E3010008E30100082F
:10012000E3010008E3010008E3010008E30100081F
:1001300000F002F800F03AF80AA090E8000C8244BF
:100140008344AAF10107DA4501D100F02FF8AFF29C
:10015000090EBAE80F0013F0010F18BFFB1A43F0A5
:1001600001031847A4020000C4020000103A24BF93
:1001700078C878C1FAD8520724BF30C830C144BF0C
:1001800004680C607047000000230024002500264E
:10019000103A28BF78C1FBD8520728BF30C148BFEA
:1001A0000B6070471FB51FBD10B510BD00F02FF8D4
:1001B0001146FFF7F7FF00F0FBF800F04DF803B42D
:1001C000FFF7F2FF03BC00F0B1F800000848004759
:1001D000FEE7FEE7FEE7FEE7FEE7FEE7FEE7FEE7F7
:1001E000FEE7FEE703480449044A054B7047000058
:1001F00031010008380100203807002038030020B2
:100200003803002070477047704770477047754645
:1002100000F028F8AE4605006946534620F0070076
:10022000854618B020B5FFF7DDFFBDE820404FF050
:1002300000064FF000074FF000084FF0000B21F0D0
:100240000701AC46ACE8C009ACE8C009ACE8C0099D
:10025000ACE8C0098D4670470446AFF300802046E5
:10026000FFF7ADFF00487047D40000200C488069BC
:1002700040F008000A4988610A48006820F47000CC
:10028000084908600846006840F4401008600548C6
:100290000C30006840F0200002490C3108607047C3
:1002A00000100240000C01401D49098801F02001A6
:1002B00011B31B49091D0988C8B21A49098801F4FC
:1002C0000041C9B91749098801F4804161B10A2880
:1002D00003D00021134A118020E01249098841F41B
:1002E0000041104A118019E00D2806D10D490988F6
:1002F00041F480410B4A118010E00A490988C1F39A
:100300000D01094A505407490988491C054A1180C2
:1003100011460988C72901DD0021118070470000BE
:1003200000380140080000200C000020014600BFFA
:10033000704700004FF0E021096921F004014FF0FF
:10034000E0221161C21700EB5272C2F3C702074BE1
:100350001A701946097801EB4102C2EBC1114FF640
:10036000FF7202EAC101024A1180704700000020BA
:100370000200002001460D4A12884A434FF0E02354
:100380005A6100229A6101221A6100BF4FF0E022F7
:10039000106900F001021AB100F48032002AF5D091
:1003A00000224FF0E0231A619A617047020000209A
:1003B000FFF75CFF4820FFF7BDFF1FE01048006813
:1003C00040F020000E4908600E48006840F0200010
:1003D0000C4908604FF4FA70FFF7CCFF084800683A
:1003E00020F02000064908600648006820F0200040
:1003F000044908604FF4FA70FFF7BCFFDEE7000025
:100400000C0C01400C1801402804000800000020DA
:100410000C0000006C010008340400080C000020EF
:100420002C07000088010008000000000000000008
:0404300000000000C8
:0400000508000131BD
:00000001FF
